{
  "contractName": "HiAngely",
  "abi": [
    {
      "constant": true,
      "inputs": [],
      "name": "hi",
      "outputs": [
        {
          "name": "",
          "type": "string"
        }
      ],
      "payable": false,
      "stateMutability": "view",
      "type": "function"
    }
  ],
  "bytecode": "0x6060604052341561000f57600080fd5b6101578061001e6000396000f300606060405260043610610041576000357c0100000000000000000000000000000000000000000000000000000000900463ffffffff168063a99dca3f14610046575b600080fd5b341561005157600080fd5b6100596100d4565b6040518080602001828103825283818151815260200191508051906020019080838360005b8381101561009957808201518184015260208101905061007e565b50505050905090810190601f1680156100c65780820380516001836020036101000a031916815260200191505b509250505060405180910390f35b6100dc610117565b6040805190810160405280600a81526020017f486920416e67656c792100000000000000000000000000000000000000000000815250905090565b6020604051908101604052806000815250905600a165627a7a72305820c1d7093768d5821ec2fa360bbad5d21c7285065a90983e4eb8d800cbef5d7cf30029",
  "source": "pragma solidity ^0.4.17;\n\ncontract HiAngely {\n    function hi() public view returns (string){\n        return \"Hi Angely!\";\n    }\n}\n",
  "sourcePath": "/home/something/Dev/Eth/PlayGround/up1/contracts/Up.sol",
  "compiler": {
    "name": "solc",
    "version": "0.4.21+commit.dfe3193c.Emscripten.clang"
  },
  "schemaVersion": "2.0.0",
  "updatedAt": "2018-09-03T21:33:10.759Z"
}