{
  "contractName": "Up",
  "abi": [
    {
      "anonymous": false,
      "inputs": [
        {
          "indexed": false,
          "name": "amount",
          "type": "uint256"
        },
        {
          "indexed": false,
          "name": "length",
          "type": "uint256"
        }
      ],
      "name": "Deposit",
      "type": "event"
    },
    {
      "anonymous": false,
      "inputs": [],
      "name": "Withdraw",
      "type": "event"
    },
    {
      "constant": false,
      "inputs": [
        {
          "name": "amount",
          "type": "uint256"
        },
        {
          "name": "length",
          "type": "uint256"
        }
      ],
      "name": "deposit",
      "outputs": [],
      "payable": true,
      "stateMutability": "payable",
      "type": "function"
    },
    {
      "constant": false,
      "inputs": [],
      "name": "withdraw",
      "outputs": [],
      "payable": false,
      "stateMutability": "nonpayable",
      "type": "function"
    },
    {
      "constant": false,
      "inputs": [
        {
          "name": "_token",
          "type": "address"
        }
      ],
      "name": "withdrawTokens",
      "outputs": [],
      "payable": false,
      "stateMutability": "nonpayable",
      "type": "function"
    }
  ],
  "bytecode": "0x606060405260008060006101000a81548160ff021916908315150217905550341561002957600080fd5b610466806100386000396000f300606060405260043610610057576000357c0100000000000000000000000000000000000000000000000000000000900463ffffffff1680633ccfd60b1461005c57806349df728c14610071578063e2bbb158146100aa575b600080fd5b341561006757600080fd5b61006f6100cb565b005b341561007c57600080fd5b6100a8600480803573ffffffffffffffffffffffffffffffffffffffff1690602001909190505061017d565b005b6100c96004808035906020019091908035906020019091905050610327565b005b60015442111561014f57600060019054906101000a900473ffffffffffffffffffffffffffffffffffffffff1673ffffffffffffffffffffffffffffffffffffffff166108fc3073ffffffffffffffffffffffffffffffffffffffff16319081150290604051600060405180830381858888f19350505050151561014e57600080fd5b5b7f57ea89b6814fccbbe8728fa89cc8e6b5477e559b2a34e946e105b11112e94b5860405160405180910390a1565b6000806001544211151561019057600080fd5b8291508173ffffffffffffffffffffffffffffffffffffffff166370a08231306040518263ffffffff167c0100000000000000000000000000000000000000000000000000000000028152600401808273ffffffffffffffffffffffffffffffffffffffff1673ffffffffffffffffffffffffffffffffffffffff168152602001915050602060405180830381600087803b151561022d57600080fd5b5af1151561023a57600080fd5b5050506040518051905090508173ffffffffffffffffffffffffffffffffffffffff1663a9059cbb600060019054906101000a900473ffffffffffffffffffffffffffffffffffffffff16836040518363ffffffff167c0100000000000000000000000000000000000000000000000000000000028152600401808373ffffffffffffffffffffffffffffffffffffffff1673ffffffffffffffffffffffffffffffffffffffff16815260200182815260200192505050602060405180830381600087803b151561030a57600080fd5b5af1151561031757600080fd5b5050506040518051905050505050565b813414151561033557600080fd5b60008111801561035a57506103576301e187e04261041c90919063ffffffff16565b81105b151561036557600080fd5b33600060016101000a81548173ffffffffffffffffffffffffffffffffffffffff021916908373ffffffffffffffffffffffffffffffffffffffff16021790555060016000806101000a81548160ff0219169083151502179055506103d3814261041c90919063ffffffff16565b6001819055507fa3af609bf46297028ce551832669030f9effef2b02606d02cbbcc40fe6b47c558282604051808381526020018281526020019250505060405180910390a15050565b600080828401905083811015151561043057fe5b80915050929150505600a165627a7a7230582031dfbc9a8e4398d8c510f66132d4488b3fe88420947c7490532e821cb925fcb60029",
  "source": "pragma solidity ^0.4.17;\n//TODO NEW SOLIDITY VERSION?\n//TODO ERC20 TOKEN CODE\nimport \"../installed_contracts/zeppelin/contracts/token/StandardToken.sol\";\nimport \"../installed_contracts/zeppelin/contracts/math/SafeMath.sol\";\n\ncontract Up {\n    using SafeMath for uint256;\n\n    //flag if eth is deposited and contract is used\n    bool isUsed = false;\n    //creator address\n    address ownerAddress;\n\n    uint256 endTime;\n\n    event Deposit(uint256 amount, uint256 length);\n    event Withdraw();\n\n    // function depositToken(uint256 length) public{\n\n\n    //TODO deal with time conversion on front end\n    function deposit(uint256 amount, uint256 length) payable public {\n        require(msg.value == amount);\n        //length is greater than nothing but less than a year\n        require(length > 0 && length < (now.add(31557600)));\n\n        ownerAddress = msg.sender;\n        isUsed = true;\n        endTime = now.add(length);\n        emit Deposit(amount, length);\n    }\n\n    function withdraw() public {\n        if (now > endTime) { //TODO change to require\n            ownerAddress.transfer(address(this).balance);\n            //send back money\n        }\n        emit Withdraw();\n        //TODO contract suicide TODO test contract suicide\n        //check that balance of the contract is 0 and suicide?\n    }\n\n    //TODO TEST THIS\n    //TODO add function in factory\n    //TODO add deposit function to set the withdraw time\n    // Call to withdraw ERC20 Tokens\n    function withdrawTokens(address _token) {\n\n        // Don't allow anything to be withdrawn until the unlock time\n        require(now > endTime);\n\n        // Withdraw the tokens\n        StandardToken token = StandardToken(_token);\n        uint balance = token.balanceOf(this);\n        token.transfer(ownerAddress, balance);\n    }\n}\n\ncontract UpFactory {\n    mapping (address => address) ups;\n    event PactCreated(address _address);\n\n    //TODO test\n    function createPact() public {\n        if (ups[msg.sender] == 0) { //one contract per person\n            //TODO fire event\n            ups[msg.sender] = new Up();\n\n            emit PactCreated(ups[msg.sender]);\n            //TODO roll the deposit in with the creation?\n        }\n    }\n\n    function deposit(uint256 amount, uint256 length) payable public {\n        require(ups[msg.sender] != 0);\n        Up(ups[msg.sender]).deposit(amount, length);\n    }\n\n    function withdraw() public {\n        require(ups[msg.sender] != 0);\n        Up(ups[msg.sender]).withdraw();\n    }\n\n    //TODO delete test function\n    function hi() public view returns (string){\n        return \"Hi! you called this method successfully\";\n    }\n}\n",
  "sourcePath": "/home/something/Dev/Ulysses-Pact/Ulysses-Pact/contracts/Up.sol",
  "compiler": {
    "name": "solc",
    "version": "0.4.21+commit.dfe3193c.Emscripten.clang"
  },
  "schemaVersion": "2.0.0",
  "updatedAt": "2018-10-31T18:12:02.881Z"
}