{
  "contractName": "UpFactory",
  "abi": [
    {
      "anonymous": false,
      "inputs": [
        {
          "indexed": false,
          "name": "_address",
          "type": "address"
        }
      ],
      "name": "PactCreated",
      "type": "event"
    },
    {
      "constant": false,
      "inputs": [],
      "name": "createPact",
      "outputs": [],
      "payable": false,
      "stateMutability": "nonpayable",
      "type": "function"
    },
    {
      "constant": false,
      "inputs": [
        {
          "name": "amount",
          "type": "uint256"
        },
        {
          "name": "length",
          "type": "uint256"
        }
      ],
      "name": "deposit",
      "outputs": [],
      "payable": true,
      "stateMutability": "payable",
      "type": "function"
    },
    {
      "constant": false,
      "inputs": [],
      "name": "withdraw",
      "outputs": [],
      "payable": false,
      "stateMutability": "nonpayable",
      "type": "function"
    }
  ],
  "bytecode": "0x6060604052341561000f57600080fd5b6107d38061001e6000396000f300606060405260043610610057576000357c0100000000000000000000000000000000000000000000000000000000900463ffffffff16806331ce0d361461005c5780633ccfd60b14610071578063e2bbb15814610086575b600080fd5b341561006757600080fd5b61006f6100a7565b005b341561007c57600080fd5b610084610282565b005b6100a560048080359060200190919080359060200190919050506103d9565b005b60008060003373ffffffffffffffffffffffffffffffffffffffff1673ffffffffffffffffffffffffffffffffffffffff16815260200190815260200160002060009054906101000a900473ffffffffffffffffffffffffffffffffffffffff1673ffffffffffffffffffffffffffffffffffffffff1614156102805761012c610545565b604051809103906000f080151561014257600080fd5b6000803373ffffffffffffffffffffffffffffffffffffffff1673ffffffffffffffffffffffffffffffffffffffff16815260200190815260200160002060006101000a81548173ffffffffffffffffffffffffffffffffffffffff021916908373ffffffffffffffffffffffffffffffffffffffff1602179055507f096ac84fb7019e3228ac8020a217bd17aa4f0f88cf4eeff22e43f233b367dd746000803373ffffffffffffffffffffffffffffffffffffffff1673ffffffffffffffffffffffffffffffffffffffff16815260200190815260200160002060009054906101000a900473ffffffffffffffffffffffffffffffffffffffff16604051808273ffffffffffffffffffffffffffffffffffffffff1673ffffffffffffffffffffffffffffffffffffffff16815260200191505060405180910390a15b565b60008060003373ffffffffffffffffffffffffffffffffffffffff1673ffffffffffffffffffffffffffffffffffffffff16815260200190815260200160002060009054906101000a900473ffffffffffffffffffffffffffffffffffffffff1673ffffffffffffffffffffffffffffffffffffffff161415151561030657600080fd5b6000803373ffffffffffffffffffffffffffffffffffffffff1673ffffffffffffffffffffffffffffffffffffffff16815260200190815260200160002060009054906101000a900473ffffffffffffffffffffffffffffffffffffffff1673ffffffffffffffffffffffffffffffffffffffff16633ccfd60b6040518163ffffffff167c0100000000000000000000000000000000000000000000000000000000028152600401600060405180830381600087803b15156103c757600080fd5b5af115156103d457600080fd5b505050565b60008060003373ffffffffffffffffffffffffffffffffffffffff1673ffffffffffffffffffffffffffffffffffffffff16815260200190815260200160002060009054906101000a900473ffffffffffffffffffffffffffffffffffffffff1673ffffffffffffffffffffffffffffffffffffffff161415151561045d57600080fd5b6000803373ffffffffffffffffffffffffffffffffffffffff1673ffffffffffffffffffffffffffffffffffffffff16815260200190815260200160002060009054906101000a900473ffffffffffffffffffffffffffffffffffffffff1673ffffffffffffffffffffffffffffffffffffffff1663e2bbb15883836040518363ffffffff167c01000000000000000000000000000000000000000000000000000000000281526004018083815260200182815260200192505050600060405180830381600087803b151561053157600080fd5b5af1151561053e57600080fd5b5050505050565b60405161025280610556833901905600606060405260008060006101000a81548160ff021916908315150217905550341561002957600080fd5b61021a806100386000396000f30060606040526004361061004c576000357c0100000000000000000000000000000000000000000000000000000000900463ffffffff1680633ccfd60b14610051578063e2bbb15814610066575b600080fd5b341561005c57600080fd5b610064610087565b005b6100856004808035906020019091908035906020019091905050610139565b005b60015442111561010b57600060019054906101000a900473ffffffffffffffffffffffffffffffffffffffff1673ffffffffffffffffffffffffffffffffffffffff166108fc3073ffffffffffffffffffffffffffffffffffffffff16319081150290604051600060405180830381858888f19350505050151561010a57600080fd5b5b7f57ea89b6814fccbbe8728fa89cc8e6b5477e559b2a34e946e105b11112e94b5860405160405180910390a1565b813414151561014757600080fd5b33600060016101000a81548173ffffffffffffffffffffffffffffffffffffffff021916908373ffffffffffffffffffffffffffffffffffffffff16021790555060016000806101000a81548160ff0219169083151502179055508042016001819055507fa3af609bf46297028ce551832669030f9effef2b02606d02cbbcc40fe6b47c558282604051808381526020018281526020019250505060405180910390a150505600a165627a7a72305820c976dcb3ccbb72dfaf7ae1036d9e7b98d99c5464125245759c2085bfe23fd0c30029a165627a7a7230582078111fbad96c1ab71111d562e35f0292fd1a7ab5346a41cdf7f38432ac8d00120029",
  "source": "pragma solidity ^0.4.17;\n//import '/home/something/Dev/Eth/node_modules/openzeppelin-solidity/contracts/ownership/Ownable.sol';\nimport '../installed_contracts/zeppelin/contracts/ownership/Ownable.sol';\n//^truffle version issue. huge waste of time\n// ^this is an issue with some npm modules at a higher directoy i think\ncontract Up {\n\n    //flag if eth is deposited and contract is used\n    bool isUsed = false;\n    //creator address\n    address ownerAddress;\n\n    uint256 endTime;\n\n    event Deposit(uint256 amount, uint256 length);\n    event Withdraw();\n\n    //TODO deal with time conversion on front end\n    //TODO limit on length\n    //TODO check for overflows once openzeppelin can be imported\n    function deposit(uint256 amount, uint256 length) payable public{\n        require(msg.value == amount);\n\n        ownerAddress = msg.sender;\n        isUsed = true;\n        endTime = now + length;\n        emit Deposit(amount, length);\n    }\n\n    //TODO code to verify owner (save creator address). is this really needed???\n    function withdraw() public{\n        if (now > endTime) {\n            ownerAddress.transfer(address(this).balance);\n            //send back money\n        }\n        emit Withdraw();\n        //TODO contract suicide\n    }\n}\n\ncontract UpFactory {\n    mapping (address => address) ups;\n    event PactCreated(address _address);\n\n    //TODO test\n    function createPact() public {\n        if (ups[msg.sender] == 0) { //one contract per factory\n            //TODO fire event\n            ups[msg.sender] = new Up();\n\n            emit PactCreated(ups[msg.sender]);\n            //TODO roll the deposit in with the creation?\n        }\n    }\n\n    function deposit(uint256 amount, uint256 length) payable public{\n        require(ups[msg.sender] != 0);\n        Up(ups[msg.sender]).deposit(amount, length);\n    }\n\n    function withdraw() public{\n        require(ups[msg.sender] != 0);\n        Up(ups[msg.sender]).withdraw();\n    }\n}\n",
  "sourcePath": "/home/something/Dev/Ulysses-Pact/Ulysses-Pact/contracts/Up.sol",
  "compiler": {
    "name": "solc",
    "version": "0.4.21+commit.dfe3193c.Emscripten.clang"
  },
  "schemaVersion": "2.0.0",
  "updatedAt": "2018-10-27T21:13:46.043Z"
}